:020000040800F2
:10000000F005002049010008B7130008F9120008A4
:10001000B5130008D10100083117000800000000E6
:10002000000000000000000000000000BB130008FA
:10003000D301000800000000B9130008BD13000838
:100040006301000863010008630100086301000800
:1000500063010008630100086301000863010008F0
:1000600063010008630100086301000863010008E0
:1000700063010008630100086301000863010008D0
:1000800063010008630100086301000863010008C0
:1000900063010008630100086301000863010008B0
:1000A00063010008630100086301000863010008A0
:1000B0006301000863010008630100086301000890
:1000C0006301000863010008630100086301000880
:1000D00063010008111700086301000863010008AC
:1000E0006301000863010008630100086301000860
:1000F0006301000863010008630100086301000850
:10010000630100086301000863010008630100083F
:10011000630100086301000821140008630100085E
:10012000630100086301000863010008630100081F
:10013000DFF810D000F03AF800480047311B000803
:10014000AFF30080F00500200648804706480047CE
:10015000FEE7FEE7FEE7FEE7FEE7FEE7FEE7FEE777
:10016000FEE7FEE71F14000831010008D2B201E0EB
:1001700000F8012B491EFBD270470022F6E710B5AC
:1001800013460A4604461946FFF7F0FF204610BD05
:1001900010B5002200E0521C835C8C5CA34201D1AC
:1001A000002BF8D1D8B2E1B2401A10BD064C074D71
:1001B00006E0E06840F0010394E807009847103437
:1001C000AC42F6D3FFF7B8FFB01C0008D01C000803
:1001D000FEE7704772B6FEE710B590F821100022D6
:1001E000022905D00421816380F82020012010BD60
:1001F00001680B6823F00E030B6001680B6823F0A5
:1002000001030B6090F84030C46B012101FA03F345
:10021000636080F8211080F82020104610BD000097
:100220002DE9F05F90F821100024022903D0042169
:100230008163012485E001680A6822F00E020A60E9
:1002400001680A6822F001020A603F4E3E4FB21573
:10025000DFF8F4C0DFF8F090DFF8ECA0DFF8E8B0EA
:10026000DFF8E4E00168783F13011502ACF1640C9B
:10027000A9F15009AAF13C0AABF1280BAEF1140E1A
:100280004FF48018B14227D9B9420ED0614512D03F
:1002900049451DD0514518D0594518D0714501D157
:1002A000424615E0294EB14201D1012210E0274E0D
:1002B0001436B14201D110220AE0244E2836B14250
:1002C00006D0224A3C32914201D11A4600E02A4629
:1002D0001E49091F0A602BE0B94213D0614517D0AF
:1002E000494522D051451DD059451DD0714501D1F8
:1002F00042461AE0B14202D14FF0807215E0134E2F
:10030000B14201D1012210E0104E1436B14201D1A8
:1003100010220AE00D4E2836B14206D00B4A3C327C
:10032000914201D11A4600E02A46074980394A60C5
:10033000012180F82110002180F82010416B01B1CB
:1003400088472046BDE8F09F800002400804024034
:100350002DE9F84FDFF8C891002409F1040A0AF1E9
:10036000040B23460F270BF1040ED1E00125A54015
:1003700006EA0502AA4276D1DFF8A8C14E68A6EBCC
:100380000C0866452BD00DDC032E34D005DC36B3CB
:10039000012E19D0022E2FD11BE0112E16D0122EB5
:1003A0002AD119E0B8F5881F19D006DCB8F5803FCE
:1003B00015D0B8F5801F1FD111E0B8F5001F0ED081
:1003C000B8F5041F18D10AE0CB6815E0CB681B1DF7
:1003D00012E0CB6808330FE0CB680C330CE08B687D
:1003E0002BB1012B4FF0080303D0456104E0042337
:1003F00002E0056100E00023FF2A01D8064601E083
:1004000000F104064FEA840501D9A5F12005D6F8CC
:10041000008007FA05FC28EA0C0803FA05F548EA0B
:100420000508C6F800804D68ED0070D53E4DAE69F8
:1004300046F00106AE61AD6924F0030605F0010542
:1004400000953A4D06EB050CDCF80850A607360F70
:1004500007FA06F825EA0805DFF8D480404503D1FD
:100460004FF0000825E052E0DFF8C880404502D197
:100470004FF001081DE0DFF8C080404502D14FF089
:10048000020816E0DFF8B480404502D14FF00308BF
:100490000FE0DFF8AC80404502D14FF0040808E0DF
:1004A000DFF8A080404502D14FF0050801E04FF091
:1004B000060808FA06F848EA0508CCF808804D68EE
:1004C000D9F80060ED034D4601D5164300E0964390
:1004D0002E604D68DAF80060AD03554601D516432D
:1004E00000E096432E604D68DBF80060ED025D464B
:1004F00001D5164300E096432E604D68DEF800609B
:10050000AD02754601D5164300E096432E60641C8B
:100510000A681646E2407FF429AFBDE8F88F000074
:1005200000040140000011100010024000000140D2
:1005300000080140000C014000100140001401407F
:1005400000180140001C01408068084000D00120D4
:1005500070470000014880687047000000000020DC
:1005600002488168027811448160704700000020D1
:10057000074810B5016841F010010160032000F048
:1005800075F80F2000F006F800F024F8002010BDE8
:100590000020024070B50D4D04464FF47A71287862
:1005A000B1FBF0F00A490968B1FBF0F000F0ECFA99
:1005B00048B9102C07D200222146501E00F036F810
:1005C00000206C6070BD012070BD000000000020A4
:1005D0000C0000200C4808B5816941F001018161DF
:1005E000816901F001010091C16941F08051C1614F
:1005F000C06900F0805000900448416821F0E0613B
:1006000041F00071416008BD00100240000001404F
:10061000002809DB00F01F02012191404009800001
:1006200000F1E020C0F8001170470000F0B40E4B5C
:100630001B680C46C3F30223C3F10705042D00D940
:100640000425191D072901D2002300E0DB1E012625
:1006500006FA05F1491E214099409E40761E16403B
:100660003143F0BC01F06EB80CED00E0064900F03B
:10067000070208684FF6FF03184040EA0220034AC9
:1006800010430860704700000CED00E00000FA0520
:100690002DE9F0470F46050061D0434E306800F069
:1006A0000700B84209D2306820F0070038433060B4
:1006B000306800F00700B84251D128683B4C8107F0
:1006C00012D5400703D5606840F4E0606060287888
:1006D000000703D5606840F4605060606068A968F6
:1006E00020F0F000084360602878C00728D06868D0
:1006F000012810D02168022810D0890700292EDA9D
:10070000616821F0030101436160FFF723FF804628
:1007100041F288390DE021688903EFE78901EDE7AF
:10072000FFF718FFA0EB0801494502D90320BDE8F7
:10073000F0876068696800F00C00B0EB810FEFD1C2
:10074000306800F00700B8420BD9306820F007008D
:1007500038433060306800F00700B84201D0012013
:10076000E5E72878400705D56068E96820F4E0608F
:10077000084360602878000706D56068296920F47E
:10078000605040EAC100606000F038F86168084AD3
:10079000C1F30311515CC84006490860064800686F
:1007A000FFF7F8FE0020C2E70020024000100240E0
:1007B000981C00080C000020040000200448054993
:1007C00000684968044AC1F30221515CC84070477F
:1007D0000C00002000100240A81C00080448054935
:1007E00000684968044AC1F3C221515CC84070479F
:1007F0000C00002000100240A81C000812A185B0C7
:100800000FC98DE80F0014A0144A006804905168C5
:10081000134801F00C03042B10D0082B0ED1C1F3A8
:100820008343C9031DF803000AD5516804AAC1F324
:100830004041515C0A4A5043B0FBF1F005B07047AB
:1008400008494843FAE700000203040506070809BF
:100850000A0B0C0D0E0F10100102000000100240D8
:1008600000127A0000093D002DE9F84F040070D015
:100870002078C04DC00749D06868C0F381000128C6
:1008800007D06868C0F38100022809D16868C003F6
:1008900006D52868800339D560680028E7D035E0A0
:1008A0006068B0F5803F0BD010B1B0F5A02F11D02B
:1008B000286820F480302860286820F4802002E036
:1008C000286840F480302860606890B1FFF742FEED
:1008D00006460AE0286840F480202860F0E700BF60
:1008E000FFF738FE801B642873D828688003F7D58B
:1008F0000CE0FFF72FFE064605E000BFFFF72AFEDB
:10090000801B6428F0D828688003F7D420789A4E9A
:1009100080074FF001094FF0000839D5686810F0E2
:100920000C0F07D06868C0F38100022809D16868FD
:10093000C00306D42868800714D52069012808D18F
:1009400010E02069B0B1C6F80090FFF703FE07463B
:1009500005E00AE1FFF7FEFDC01B0228C4D82868A5
:100960008007F7D52868616920F0F80040EAC100E7
:1009700028600DE0C6F80080FFF7ECFD074604E0B4
:10098000FFF7E8FDC01B022823D828688007F7D4AA
:10099000207800072CD57948A169D9B1C0F800901A
:1009A000FFF7D8FD074604E0FFF7D4FDC01B02287F
:1009B0000FD8686A8007F7D571484FF4FA5100687C
:1009C000B0FBF1F0009000BF0098411E0091FAD2F8
:1009D0000EE080E0C0F80080FFF7BCFD074604E0B1
:1009E000FFF7B8FDC01B022875D8686A8007F7D4E6
:1009F0002078400760D5E8690027C00008D4E8697E
:100A000040F08050E861E869012700F080500090D4
:100A10005C480168C90513D40168834641F48071BC
:100A20000160FFF797FD824606E000BFFFF792FDE9
:100A3000A0EB0A0064284ED8DBF80000C005F5D50D
:100A4000E06801280AD008B1052813D0286A20F0F0
:100A500001002862286A20F0040002E0286A40F0C1
:100A600001002862E06841F2883B98B1FFF772FD0F
:100A700082460BE0286A40F004002862EEE700BFDF
:100A8000FFF768FDA0EB0A0159455AD8286A80078C
:100A9000F6D50CE0FFF75EFD824605E0FFF75AFD54
:100AA000A0EB0A0159454CD8286A8007F6D41FB13B
:100AB000E86920F08050E861E06988B36968C1F3B3
:100AC0008101022944D00228C6F8608004D0FFF7D3
:100AD00041FD044638E034E0FFF73CFD074604E002
:100AE000FFF738FDC01B02282BD828688001F7D4F7
:100AF000206AB0F5803F05D16868A16820F4003015
:100B000008436860D4E908010843696821F4741156
:100B100008436860C6F86090FFF71CFD044606E0D5
:100B200025E000BFFFF716FD001B022809D8286842
:100B30008001F7D51BE000BFFFF70CFD001B02286A
:100B400002D90320BDE8F88F28688001F4D40EE0B4
:100B50000128F7D06868226A00F48031914204D1FC
:100B6000616A00F47010884201D00120EAE7002099
:100B7000E8E70000001002400000424280044242C8
:100B80000C0000200070004010B5401EB0F1807FC6
:100B900001D3012010BD4FF0E02460610F216017E8
:100BA00000F0D0FD0020A06107202061002010BDD2
:100BB0007047704770B590F83C20012A2CD0012472
:100BC00080F83C40022280F83D2003685A689D6806
:100BD00022F070060A6832435A60104B02689A424B
:100BE0000ED00F4B9A420BD0B2F1804F08D00D4B74
:100BF0009A4205D00C4B9A4202D00C4B9A4204D137
:100C0000496825F080031943916080F83D40002138
:100C100080F83C10084670BD022070BD002C0140D9
:100C2000003401400004004000080040000C004077
:100C300010B5040003D094F83D0010B107E0012086
:100C400010BD002084F83C00204600F01FF8022070
:100C500084F83D00211D206800F0E8FB012084F8A5
:100C6000460084F83E0084F83F0084F8400084F891
:100C7000410084F8420084F8430084F8440084F87A
:100C8000450084F83D00002010BD000008B5006854
:100C90000B49884212D10B48C16941F01001C16172
:100CA000C069002200F01000009011463620FFF7C6
:100CB000BDFCBDE808403620FFF7AABC08BD000017
:100CC000001000400010024090F83D10012901D0B2
:100CD00001207047022180F83D100168CA6842F087
:100CE0000102CA6000680E4988420ED00D49884250
:100CF0000BD0B0F1804F08D00B49884205D00B498A
:100D0000884202D00A49884204D1816801F0070173
:100D1000062903D0016841F00101016000207047FD
:100D2000002C014000340140000400400008004055
:100D3000000C0040704770B50446006801694FF030
:100D40000005C943890715D4C168C943890711D46F
:100D5000E91E016101202077206880698007204614
:100D600002D0FFF7E7FF04E000F098F8204600F01B
:100D700096F8257720680169C943490717D4C168E7
:100D8000C943490713D46FF00401016102202077A1
:100D90002068806910F4407F204602D0FFF7CAFF28
:100DA00004E000F07BF8204600F079F82577206811
:100DB0000169C943090716D4C168C943090712D498
:100DC0006FF008010161042020772068C069800766
:100DD000204602D0FFF7AEFF04E000F05FF82046A7
:100DE00000F05DF8257720680169C943C90617D46A
:100DF000C168C943C90613D46FF01001016108200E
:100E000020772068C06910F4407F204602D0FFF7A9
:100E100091FF04E000F042F8204600F040F825770A
:100E200020680169C943C90708D1C168C943C90716
:100E300004D1891E0161204600F032F82068016962
:100E4000C943090609D4C168C943090605D46FF02E
:100E5000800101612046FFF7ABFE20680169C943AC
:100E6000490609D4C168C943490605D46FF0400159
:100E70000161204600F022F820680169C943890613
:100E80000BD4C168C943890607D46FF02001016102
:100E90002046BDE87040FFF78CBE70BD70477047BC
:100EA00010B500680449884205D100F0EDFEBDE8A8
:100EB000104000F0F7BD10BD0010004070477047B3
:100EC00070470000F8B5026804461068D16853699D
:100ED00010F00F0F4FF0000553D003F0010601F49E
:100EE000907737435FD0C20705D0CA0503D5226C7F
:100EF00042F001022264420705D5DA0703D0226CD2
:100F000042F002022264820705D5DA0703D0226C80
:100F100042F004022264020707D501F020023243A6
:100F200003D0226C42F008022264226C002A34D0E2
:100F3000800604D5880602D5204600F0E3FA206832
:100F40004069216CC0F38010090700D430B32046FB
:100F500000F0C0FA2068416949061BD5416921F0BB
:100F600040014161A06BA8B158494163A06BFFF7F4
:100F700057F9002811D0A06B416B01B0BDE8F040DB
:100F8000084783060FD58B060DD52046BDE8F840EF
:100F900000F0B8BA2046FFF793FFF8BD2046FFF7F0
:100FA0008FFF2564F8BD266B2023012E52D1C60683
:100FB00050D5CE064ED51068506800905069400656
:100FC0002AD5A16B086840680004000CEAD0A68D01
:100FD0008642E7D9E0858869202818D0D06820F4B7
:100FE0008070D0602068416921F001014161206872
:100FF000416921F04001416184F83E302563206859
:10100000C16821F01001C160A06BFFF7E5F8A08D69
:10101000E18D401A81B219E0A08DE18D401A81B2B4
:10102000E08D0028BED00029BCD0D06820F490709C
:10103000D0602068426922F00102426184F83E30AB
:1010400025632068C26822F01002C2602046FFF7C4
:1010500036FFF8BD05062BD50D0629D594F83D00C1
:101060002128F6D1A068B0F5805F01D12069B0B128
:10107000206A411C2162216800784860E08C401E93
:101080000004000CE084E4D12068C16821F08001F4
:10109000C1602068C16841F04001C160F8BD206AAC
:1010A0000088C0F308005060206A801C2062E5E7D9
:1010B0004006F3D54806F1D5D168204621F040011D
:1010C000D16084F83D3000F016F9F8BDC514000871
:1010D00070B5040004D094F83D00002510B106E07E
:1010E000012070BD84F83C50204600F023F82420F5
:1010F00084F83D002068C16821F40051C160204699
:1011000000F05CFA2068016921F4904101612068D7
:10111000416921F02A0141612068C16841F4005110
:10112000C1602564202084F83D0084F83E00002042
:1011300070BD000030B585B0002400940194029485
:1011400003940068184988422CD11848816941F4F9
:1011500080418161816901F480410491816941F09C
:10116000040181618069124D00F0040004904FF485
:1011700000700090022001900320039069462846E9
:10118000FFF7E6F82815CDE90004694628460294E1
:10119000FFF7DEF8002211462520FFF747FA252049
:1011A000FFF736FA05B030BD0038014000100240AC
:1011B0000008014090F83E30202B0ED159B152B1B9
:1011C00090F83C30012B08D0012380F83C300023FC
:1011D000036300F04FBA01207047022070470000FF
:1011E000134910B588421CD1124C1349E07822787B
:1011F0000A54401CC0B2E0700A2A12D108440022EE
:1012000000F8012CE2700DA10B48FEF7C1FF08B9F0
:10121000012060700AA10848FEF7BAFF08B9022051
:101220006070BDE81040012202490148FFF7C2BFCB
:101230007000002018000020140100206461740078
:10124000656E76002DE9F843044690F83D001F4690
:1012500016460D4620284CD1C5B1BEB194F83C00CD
:10126000012846D0012084F83C004FF00008C4F863
:101270004080212084F83D00FFF76CF9A684814668
:10128000E684A068B0F5805F03D004E00120BDE8EB
:10129000F883206928B12E465FF0000584F83C8071
:1012A0000EE00026FAE78021204600F0FEF9A0B902
:1012B000AEB116F8010B21684860E08C401EE08456
:1012C000E08C4B464FF0000200970028EBD14FF026
:1012D0004001204600F0E9F930B10320D7E735F8A6
:1012E000020BC0F30800E6E7202084F83D00002050
:1012F000CDE70220CBE77047FEE700000D4808B5B8
:10130000816941F010018161816901F01001009152
:10131000816941F020018161816901F02001009122
:10132000816941F004018161806900F0040000904E
:1013300008BD0000001002401CB500240E480094B7
:101340000C49019401604721C0E9011440F2E731E2
:101350008461C160FFF76CFC08B1FEF73BFF0094AD
:10136000694605480194FFF725FC002801D0FEF7E7
:1013700031FF1CBD00100040280000200C4810B5B3
:101380000A4901604FF4E1314160002181600C2283
:10139000C160C0E904128161C161FFF799FE0028B4
:1013A00003D0BDE81040FEF715BF10BD0038014066
:1013B00070000020FEE7FEE770477047FFF7D0B8E7
:1013C00030B58FB028216846FEF7D7FE14210AA851
:1013D000FEF7D3FE01210804CDE900100024029499
:1013E00002250491CDE907504FF4E01009906846BA
:1013F000FFF73AFA08B172B6FEE70F20CDE90A0509
:101400004FF48060CDE90C4002210AA80E94FFF74A
:101410003FF9002801D072B6FEE70FB030BD70472B
:101420000148FFF788BC000028000020F0B50268E2
:101430001C4B1D4D1D4E1E4F1E4C4FF0804C9842B4
:1014400009D0A04207D0604505D0A84203D0B042E1
:1014500001D0B84204D122F0700E4A6842EA0E026E
:10146000984209D0A04207D0604505D0A84203D0D9
:10147000B04201D0B84203D122F44075CA682A4371
:101480004D6922F080022A4302608A68C2620A68BB
:101490008262984201D0A04201D109690163012111
:1014A0004161F0BD002C01400004004000080040F4
:1014B000000C0040003401400148FFF705BC00006B
:1014C0002800002010B5406A0021C185C184FFF7C3
:1014D000F7FC10BD0168CA6822F49072CA60016806
:1014E0004A6922F001024A61016B012904D10168B5
:1014F000CA6822F01002CA60202180F83E10002144
:101500000163704708B590F83E10222901D00220EF
:1015100008BD82684FF480539A4201D1016921B11C
:10152000816A9A421BD04AB10AE00268816A526815
:10153000C2F308020A80816A891C08E0026972B15C
:101540000268526802F07F020A70816A491C816257
:10155000C18D491E0904090CC18503D019E0026838
:101560005268F1E70168CA6822F02002CA60016887
:10157000CA6822F48072CA6001684A6922F00102D6
:101580004A61202180F83E10016B012903D0FFF74A
:1015900027FE002008BD002101630168CA6822F00F
:1015A0001002CA6001680A68D20602D50A68496852
:1015B0000091818DFFF783FCEBE7000070B50446D6
:1015C00000680169E26821F4405111430161216919
:1015D000A0680843616908432168CA6841F20C6346
:1015E0009A430243CA6020684169A26921F44071AC
:1015F000114341611E492068884202D1FFF7EEF88D
:1016000001E0FFF7DBF800EBC00101EB00126068BE
:1016100064218000B2FBF0F3B3FBF1F36FF0180626
:101620007343B2FBF0F5B2FBF0F605EB8305322312
:1016300003EB0515B5FBF1F5B6FBF1F605F0F0058A
:1016400005EB0615B2FBF0F6B2FBF0F0B0FBF1F0E3
:101650006FF01802504306EB800003EB0010B0FB64
:10166000F1F0216800F00F002844886070BD000090
:101670000038014081628285C285002101642222F6
:1016800080F83E2080F83C100168CA6842F48072FD
:10169000CA6001684A6942F001024A610068C16893
:1016A00041F02001C160002070472DE9F0419846CB
:1016B00017460E460446069D1DE0681C1BD02DB142
:1016C000FEF748FFA0EB0800A84214D92068C168C3
:1016D00021F4D071C1602068416921F001014161AC
:1016E000202084F83D0084F83E00002084F83C006F
:1016F0000320BDE8F0812068006836EA000004D0CD
:101700000020B842D9D00020F3E70120F9E700001B
:101710000148FFF7D7BB00007000002001220249FA
:101720000248FFF747BD00001800002070000020AD
:10173000FEE70000014A024900F023B8A51700089F
:10174000240000200907090E002804DB00F1E02036
:1017500080F80014704700F00F0000F1E02080F8DE
:10176000141D704702E008C8121F08C1002AFAD1F0
:1017700070477047002001E001C1121F002AFBD111
:1017800070472DE9F04116460F460446002503E058
:101790003946B047641C6D1C20780028F8D12846D3
:1017A000BDE8F08110B5044605484FF47A73811CFA
:1017B000847001220348FFF745FD204610BD00005C
:1017C000180000207000002000F020BA012809D085
:1017D000022809D0032809D0042809D105A000BF98
:1017E000FFF7A8BF05A0FBE706A0F9E707A0F7E70A
:1017F000704700006865650D0A0000006B6579316F
:101800000D0A0000686568650D0A00006831650D05
:101810000A000000012809D0022809D0032809D0B5
:10182000042809D105A000BFFFF784BF05A0FBE78E
:1018300006A0F9E707A0F7E7704700006865653282
:101840000D0A00006B6579320D0A00006865683288
:101850000D0A00006831650D0A0000001FB504463E
:1018600000790090002001900320039069462068D1
:10187000FEF76EFD0449034A086842F82040401C08
:1018800008601FBDDC0100201C00002070B5002492
:10189000064E074D05E000BF56F8240000F016F88C
:1018A000641C28688442F7D370BD0000DC0100206E
:1018B0001C00002030B4DDE9024501600271437173
:1018C0008471856030BCFFF7C9BF00002DE9F0418D
:1018D000044601790068FEF737FEA179704D4FF696
:1018E000F0764FF47A77884242D1216948051ED4B8
:1018F000E06841F40071B043C4E903016279120762
:1019000012D520F08050C0F30B42E060C82A06D800
:101910004FF0805202EB31414FEA314101E021F4B6
:1019200070412840C4E90301208A40051CD5607934
:10193000400719D5E068C0F30B11B94214D32169EF
:1019400041F480712161C9B264290DD9002120F0D0
:101950000F002174C01CE060A16800F00F008847F0
:10196000E06820F00F00E060206940F480602061B2
:1019700021792068FEF7E8FDA179884276D02069B8
:1019800020F40071216148054ED56079C20716D058
:10199000E268C2F30B130A3BB3F5F57F03D222F0E2
:1019A0000F02521CE260C2F30B130A2B07D383070A
:1019B00007D443071CD422F00F01491C14E082070E
:1019C00014D5E268C2F30B13B3F5FA7F0ED35FEAC6
:1019D000407C06D5BB420BD222F00F02921CE26083
:1019E00006E022F00F01891CE16007E0420705D5FF
:1019F000E26821F480712A40C4E90321000710D570
:101A0000E068284040F08050E0602169C1F3033273
:101A1000022A06D120F00F00001DE06021F4704082
:101A20002061208A400534D460790007E0681ED523
:101A3000C0F30B41C8292CD900F00F00012805D0B4
:101A4000022803D0042801D0E06804E0A168884798
:101A5000E068B043E06020F00F00284020F08050A4
:101A6000E060206920F47040206112E015E000F091
:101A70000F01012903D0022901D0042905D1B04367
:101A8000E060A16800F00F008847E06820F00F00D8
:101A9000E060206920F4806020610020BDE8F081D2
:101AA000FFFF00F0F0B5204940F6FE764FF48012BB
:101AB0004868401C48600D6800201C4930E000BFA9
:101AC00051F82040238A9B0510D5E36802EB33438D
:101AD0004FEA3343E36051F82040C3F30B17B7429A
:101AE00004D002EB33434FEA3343E36051F8204024
:101AF000E368DF0008D5C3F30B47B74204D002EB1D
:101B000033734FEA3313E36051F820402369DF0554
:101B100004D5DBB2FE2B01D05B1C2374401CC0B289
:101B2000A842CDD3F0BD00001C000020DC01002045
:101B3000FEF71EFDFFF744FCFFF7E0FBFFF7FCFBA1
:101B4000FFF71CFCFFF7EAFD04A0FFF7F3FD00F030
:101B50000DF800BFFFF738FEFCE7000068656C6C0D
:101B60006F20776F6C72640D0A0000007CB5FFF780
:101B7000A3FC00240223224615491648009400F0D5
:101B800037F8144800F05EF812484FF4FA635A1020
:101B900011491C30009400F02BF80E481C3000F066
:101BA00051F80E480E4DCDE900400A480F2310228F
:101BB00029463830FFF77EFE0A480F23CDE9004062
:101BC0000448202229464C30FFF774FE7CBD0000FB
:101BD000E91B0008B4000020ED1B0008CD17000829
:101BE0000008014015180008FFF750BE70470000BC
:101BF00010B5029C41610449C0E9022349680461AF
:101C0000C0E9001210BD00001000002070B50C4D9E
:101C10002C680DE0216868686268411A914206D319
:101C2000E16841B1C4E90001D4E904018847A4692D
:101C3000002CEFD170BD204600F016F8F4E700004C
:101C400010000020074A11680B4605E0814202D1CE
:101C50004FF0FF30704789690029F7D18361106028
:101C60000020704710000020064A06E0814202D1A1
:101C70008869106004E001F1180211680029F5D1AB
:101C8000002070471000002002484168491C416054
:101C9000704700001000002000000000000000005D
:101CA0000102030406070809000000000102030402
:101CB000D01C000800000020280000006417000865
:101CC000F81C000828000020C80500007417000850
:101CD0000100000010000000000000000024F400DB
:101CE00000000000000000000000000000000000F4
:081CF0000000000000000000EC
:0400000508000131BD
:00000001FF
